{
  "_format": "hh-sol-artifact-1",
  "contractName": "lensium",
  "sourceName": "contracts/lensium.sol",
  "abi": [
    {
      "inputs": [],
      "name": "checkLimit",
      "outputs": [],
      "stateMutability": "view",
      "type": "function"
    },
    {
      "inputs": [],
      "name": "limitTracker",
      "outputs": [],
      "stateMutability": "nonpayable",
      "type": "function"
    }
  ],
  "bytecode": "0x608060405234801561001057600080fd5b5061025d806100206000396000f3fe608060405234801561001057600080fd5b50600436106100365760003560e01c806356f4720d1461003b578063d421eb7714610045575b600080fd5b61004361004f565b005b61004d6100d3565b005b600a6000803373ffffffffffffffffffffffffffffffffffffffff1673ffffffffffffffffffffffffffffffffffffffff1681526020019081526020016000205411156100d1576040517f08c379a00000000000000000000000000000000000000000000000000000000081526004016100c890610186565b60405180910390fd5b565b6000803373ffffffffffffffffffffffffffffffffffffffff1673ffffffffffffffffffffffffffffffffffffffff1681526020019081526020016000206000815480929190610122906101df565b9190505550565b600082825260208201905092915050565b7f6c696d6974207265616368656400000000000000000000000000000000000000600082015250565b6000610170600d83610129565b915061017b8261013a565b602082019050919050565b6000602082019050818103600083015261019f81610163565b9050919050565b7f4e487b7100000000000000000000000000000000000000000000000000000000600052601160045260246000fd5b6000819050919050565b60006101ea826101d5565b91507fffffffffffffffffffffffffffffffffffffffffffffffffffffffffffffffff820361021c5761021b6101a6565b5b60018201905091905056fea26469706673582212205e42f81ef72da77d9bdc795925cf1945de14d48a24adbabca1261a714c0cb39864736f6c63430008110033",
  "linkReferences": {},
  "deployedLinkReferences": {}
}